{
  "contractName": "lottery",
  "abi": [
    {
      "inputs": [],
      "stateMutability": "nonpayable",
      "type": "constructor"
    },
    {
      "inputs": [],
      "name": "manager",
      "outputs": [
        {
          "internalType": "address",
          "name": "",
          "type": "address"
        }
      ],
      "stateMutability": "view",
      "type": "function",
      "constant": true
    },
    {
      "inputs": [
        {
          "internalType": "uint256",
          "name": "",
          "type": "uint256"
        }
      ],
      "name": "players",
      "outputs": [
        {
          "internalType": "address payable",
          "name": "",
          "type": "address"
        }
      ],
      "stateMutability": "view",
      "type": "function",
      "constant": true
    },
    {
      "inputs": [],
      "name": "winner",
      "outputs": [
        {
          "internalType": "address payable",
          "name": "",
          "type": "address"
        }
      ],
      "stateMutability": "view",
      "type": "function",
      "constant": true
    },
    {
      "stateMutability": "payable",
      "type": "receive",
      "payable": true
    },
    {
      "inputs": [],
      "name": "addPlayers",
      "outputs": [],
      "stateMutability": "payable",
      "type": "function",
      "payable": true
    },
    {
      "inputs": [],
      "name": "getBalance",
      "outputs": [
        {
          "internalType": "uint256",
          "name": "",
          "type": "uint256"
        }
      ],
      "stateMutability": "view",
      "type": "function",
      "constant": true
    },
    {
      "inputs": [],
      "name": "random",
      "outputs": [
        {
          "internalType": "uint256",
          "name": "",
          "type": "uint256"
        }
      ],
      "stateMutability": "view",
      "type": "function",
      "constant": true
    },
    {
      "inputs": [],
      "name": "pickWinner",
      "outputs": [],
      "stateMutability": "nonpayable",
      "type": "function"
    },
    {
      "inputs": [],
      "name": "allPlayers",
      "outputs": [
        {
          "internalType": "address payable[]",
          "name": "",
          "type": "address[]"
        }
      ],
      "stateMutability": "view",
      "type": "function",
      "constant": true
    }
  ],
  "bytecode": "0x608060405234801561001057600080fd5b50336000806101000a81548173ffffffffffffffffffffffffffffffffffffffff021916908373ffffffffffffffffffffffffffffffffffffffff160217905550610bfa806100606000396000f3fe60806040526004361061007f5760003560e01c8063a1a9c9e11161004e578063a1a9c9e114610123578063b0ec80941461012d578063dfbf53ae14610158578063f71d96cb1461018357610086565b806312065fe01461008b578063481c6a75146100b65780635d495aea146100e15780635ec01e4d146100f857610086565b3661008657005b600080fd5b34801561009757600080fd5b506100a06101c0565b6040516100ad9190610762565b60405180910390f35b3480156100c257600080fd5b506100cb610257565b6040516100d891906107be565b60405180910390f35b3480156100ed57600080fd5b506100f661027b565b005b34801561010457600080fd5b5061010d6104c6565b60405161011a9190610762565b60405180910390f35b61012b610500565b005b34801561013957600080fd5b506101426105af565b60405161014f91906108a9565b60405180910390f35b34801561016457600080fd5b5061016d61063d565b60405161017a91906108da565b60405180910390f35b34801561018f57600080fd5b506101aa60048036038101906101a59190610926565b610663565b6040516101b791906108da565b60405180910390f35b60008060009054906101000a900473ffffffffffffffffffffffffffffffffffffffff1673ffffffffffffffffffffffffffffffffffffffff163373ffffffffffffffffffffffffffffffffffffffff1614610251576040517f08c379a0000000000000000000000000000000000000000000000000000000008152600401610248906109b0565b60405180910390fd5b47905090565b60008054906101000a900473ffffffffffffffffffffffffffffffffffffffff1681565b60008054906101000a900473ffffffffffffffffffffffffffffffffffffffff1673ffffffffffffffffffffffffffffffffffffffff163373ffffffffffffffffffffffffffffffffffffffff1614610309576040517f08c379a0000000000000000000000000000000000000000000000000000000008152600401610300906109b0565b60405180910390fd5b60036001805490501015610352576040517f08c379a000000000000000000000000000000000000000000000000000000000815260040161034990610a1c565b60405180910390fd5b600061035c6104c6565b90506000600180549050826103719190610a6b565b90506001818154811061038757610386610a9c565b5b9060005260206000200160009054906101000a900473ffffffffffffffffffffffffffffffffffffffff16600260006101000a81548173ffffffffffffffffffffffffffffffffffffffff021916908373ffffffffffffffffffffffffffffffffffffffff160217905550600260009054906101000a900473ffffffffffffffffffffffffffffffffffffffff1673ffffffffffffffffffffffffffffffffffffffff166108fc6104366101c0565b9081150290604051600060405180830381858888f19350505050158015610461573d6000803e3d6000fd5b50600067ffffffffffffffff81111561047d5761047c610acb565b5b6040519080825280602002602001820160405280156104ab5781602001602082028036833780820191505090505b50600190805190602001906104c19291906106a2565b505050565b600042446001805490506040516020016104e293929190610b1b565b6040516020818303038152906040528051906020012060001c905090565b670de0b6b3a7640000341461054a576040517f08c379a000000000000000000000000000000000000000000000000000000000815260040161054190610ba4565b60405180910390fd5b6001339080600181540180825580915050600190039060005260206000200160009091909190916101000a81548173ffffffffffffffffffffffffffffffffffffffff021916908373ffffffffffffffffffffffffffffffffffffffff160217905550565b6060600180548060200260200160405190810160405280929190818152602001828054801561063357602002820191906000526020600020905b8160009054906101000a900473ffffffffffffffffffffffffffffffffffffffff1673ffffffffffffffffffffffffffffffffffffffff16815260200190600101908083116105e9575b5050505050905090565b600260009054906101000a900473ffffffffffffffffffffffffffffffffffffffff1681565b6001818154811061067357600080fd5b906000526020600020016000915054906101000a900473ffffffffffffffffffffffffffffffffffffffff1681565b82805482825590600052602060002090810192821561071b579160200282015b8281111561071a5782518260006101000a81548173ffffffffffffffffffffffffffffffffffffffff021916908373ffffffffffffffffffffffffffffffffffffffff160217905550916020019190600101906106c2565b5b509050610728919061072c565b5090565b5b8082111561074557600081600090555060010161072d565b5090565b6000819050919050565b61075c81610749565b82525050565b60006020820190506107776000830184610753565b92915050565b600073ffffffffffffffffffffffffffffffffffffffff82169050919050565b60006107a88261077d565b9050919050565b6107b88161079d565b82525050565b60006020820190506107d360008301846107af565b92915050565b600081519050919050565b600082825260208201905092915050565b6000819050602082019050919050565b60006108108261077d565b9050919050565b61082081610805565b82525050565b60006108328383610817565b60208301905092915050565b6000602082019050919050565b6000610856826107d9565b61086081856107e4565b935061086b836107f5565b8060005b8381101561089c5781516108838882610826565b975061088e8361083e565b92505060018101905061086f565b5085935050505092915050565b600060208201905081810360008301526108c3818461084b565b905092915050565b6108d481610805565b82525050565b60006020820190506108ef60008301846108cb565b92915050565b600080fd5b61090381610749565b811461090e57600080fd5b50565b600081359050610920816108fa565b92915050565b60006020828403121561093c5761093b6108f5565b5b600061094a84828501610911565b91505092915050565b600082825260208201905092915050565b7f796f75277265206e6f742061206d616e61676572000000000000000000000000600082015250565b600061099a601483610953565b91506109a582610964565b602082019050919050565b600060208201905081810360008301526109c98161098d565b9050919050565b7f4e6f7420656e6f75676820706c61796572730000000000000000000000000000600082015250565b6000610a06601283610953565b9150610a11826109d0565b602082019050919050565b60006020820190508181036000830152610a35816109f9565b9050919050565b7f4e487b7100000000000000000000000000000000000000000000000000000000600052601260045260246000fd5b6000610a7682610749565b9150610a8183610749565b925082610a9157610a90610a3c565b5b828206905092915050565b7f4e487b7100000000000000000000000000000000000000000000000000000000600052603260045260246000fd5b7f4e487b7100000000000000000000000000000000000000000000000000000000600052604160045260246000fd5b6000819050919050565b610b15610b1082610749565b610afa565b82525050565b6000610b278286610b04565b602082019150610b378285610b04565b602082019150610b478284610b04565b602082019150819050949350505050565b7f506c656173652073656e64203120657468657200000000000000000000000000600082015250565b6000610b8e601383610953565b9150610b9982610b58565b602082019050919050565b60006020820190508181036000830152610bbd81610b81565b905091905056fea264697066735822122018f62c48ebf78b09f7bf46e3ac9132830a8f6b6993081527006938ca179038f964736f6c63430008130033",
  "immutableReferences": {},
  "source": "// SPDX-License-Identifier: MIT\npragma solidity 0.8.19;\n\ncontract lottery {\n    address public manager;\n    address payable[] public players;\n    address payable public winner;\n\n    constructor() {\n        manager = msg.sender;\n    }\n\n    receive() external payable {}\n\n    modifier onlyManager() {\n        require(msg.sender == manager, \"you're not a manager\");\n        _;\n    }\n\n    function addPlayers() public payable {\n        require(msg.value == 1 ether, \"Please send 1 ether\");\n        players.push(payable(msg.sender));\n    }\n\n    function getBalance() public view onlyManager returns (uint256) {\n        return address(this).balance;\n    }\n\n    function random() public view returns (uint256) {\n        return\n            uint256(\n                keccak256(\n                    abi.encodePacked(\n                        block.timestamp,\n                        block.prevrandao,\n                        players.length\n                    )\n                )\n            );\n    }\n\n    function pickWinner() public onlyManager {\n        require(players.length >= 3, \"Not enough players\");\n        uint r = random();\n        uint i = r % players.length;\n        winner = players[i];\n        winner.transfer(getBalance());\n        players = new address payable[](0);\n    }\n\n    // this function will give the details of all the players though we have already created a public array of players but this shall give the details while we connect with the front end.\n    function allPlayers() public view returns (address payable[] memory) {\n        return players;\n    }\n}\n",
  "sourcePath": "/Users/jimit/Desktop/lotterytest/contracts/lottery.sol",
  "compiler": {
    "name": "solc",
    "version": "0.8.19+commit.7dd6d404.Emscripten.clang"
  },
  "schemaVersion": "3.4.14",
  "updatedAt": "2023-07-12T10:13:13.404Z",
  "networkType": "ethereum",
  "devdoc": {
    "kind": "dev",
    "methods": {},
    "version": 1
  },
  "userdoc": {
    "kind": "user",
    "methods": {},
    "version": 1
  }
}